{
  "_format": "hh-sol-artifact-1",
  "contractName": "ConfidentialGradebook",
  "sourceName": "contracts/ConfidentialGradebook.sol",
  "abi": [
    {
      "inputs": [
        {
          "internalType": "address",
          "name": "_teacher",
          "type": "address"
        }
      ],
      "stateMutability": "nonpayable",
      "type": "constructor"
    },
    {
      "inputs": [],
      "name": "ECDSAInvalidSignature",
      "type": "error"
    },
    {
      "inputs": [
        {
          "internalType": "uint256",
          "name": "length",
          "type": "uint256"
        }
      ],
      "name": "ECDSAInvalidSignatureLength",
      "type": "error"
    },
    {
      "inputs": [
        {
          "internalType": "bytes32",
          "name": "s",
          "type": "bytes32"
        }
      ],
      "name": "ECDSAInvalidSignatureS",
      "type": "error"
    },
    {
      "inputs": [],
      "name": "InvalidShortString",
      "type": "error"
    },
    {
      "inputs": [],
      "name": "SignerNotMessageSender",
      "type": "error"
    },
    {
      "inputs": [],
      "name": "SignerNotOwner",
      "type": "error"
    },
    {
      "inputs": [
        {
          "internalType": "string",
          "name": "str",
          "type": "string"
        }
      ],
      "name": "StringTooLong",
      "type": "error"
    },
    {
      "anonymous": false,
      "inputs": [],
      "name": "EIP712DomainChanged",
      "type": "event"
    },
    {
      "inputs": [],
      "name": "eip712Domain",
      "outputs": [
        {
          "internalType": "bytes1",
          "name": "fields",
          "type": "bytes1"
        },
        {
          "internalType": "string",
          "name": "name",
          "type": "string"
        },
        {
          "internalType": "string",
          "name": "version",
          "type": "string"
        },
        {
          "internalType": "uint256",
          "name": "chainId",
          "type": "uint256"
        },
        {
          "internalType": "address",
          "name": "verifyingContract",
          "type": "address"
        },
        {
          "internalType": "bytes32",
          "name": "salt",
          "type": "bytes32"
        },
        {
          "internalType": "uint256[]",
          "name": "extensions",
          "type": "uint256[]"
        }
      ],
      "stateMutability": "view",
      "type": "function"
    },
    {
      "inputs": [],
      "name": "getClassAverage",
      "outputs": [
        {
          "internalType": "uint32",
          "name": "",
          "type": "uint32"
        }
      ],
      "stateMutability": "view",
      "type": "function"
    },
    {
      "inputs": [
        {
          "internalType": "address",
          "name": "student",
          "type": "address"
        },
        {
          "components": [
            {
              "internalType": "bytes",
              "name": "data",
              "type": "bytes"
            },
            {
              "internalType": "int32",
              "name": "securityZone",
              "type": "int32"
            }
          ],
          "internalType": "struct inEuint32",
          "name": "encryptedGrade",
          "type": "tuple"
        }
      ],
      "name": "submitGrade",
      "outputs": [],
      "stateMutability": "nonpayable",
      "type": "function"
    },
    {
      "inputs": [],
      "name": "teacher",
      "outputs": [
        {
          "internalType": "address",
          "name": "",
          "type": "address"
        }
      ],
      "stateMutability": "view",
      "type": "function"
    },
    {
      "inputs": [
        {
          "components": [
            {
              "internalType": "bytes32",
              "name": "publicKey",
              "type": "bytes32"
            },
            {
              "internalType": "bytes",
              "name": "signature",
              "type": "bytes"
            }
          ],
          "internalType": "struct Permission",
          "name": "perm",
          "type": "tuple"
        }
      ],
      "name": "viewMyGrade",
      "outputs": [
        {
          "internalType": "string",
          "name": "",
          "type": "string"
        }
      ],
      "stateMutability": "view",
      "type": "function"
    }
  ],
  "bytecode": "0x6101606040523480156200001257600080fd5b506040516200290738038062002907833981810160405281019062000038919062000332565b6040518060400160405280601181526020017f4668656e6978205065726d697373696f6e0000000000000000000000000000008152506040518060400160405280600381526020017f312e300000000000000000000000000000000000000000000000000000000000815250620000ba6000836200019c60201b90919060201c565b6101208181525050620000d86001826200019c60201b90919060201c565b6101408181525050818051906020012060e08181525050808051906020012061010081815250504660a0818152505062000117620001f460201b60201c565b608081815250503073ffffffffffffffffffffffffffffffffffffffff1660c08173ffffffffffffffffffffffffffffffffffffffff1681525050505080600260006101000a81548173ffffffffffffffffffffffffffffffffffffffff021916908373ffffffffffffffffffffffffffffffffffffffff16021790555050620008b4565b6000602083511015620001c257620001ba836200025160201b60201c565b9050620001ee565b82620001d483620002be60201b60201c565b6000019081620001e59190620005de565b5060ff60001b90505b92915050565b60007f8b73c3c69bb8fe3d512ecc4cf759cc79239f7b179b0ffacaa9a75d522b39400f60e0516101005146306040516020016200023695949392919062000702565b60405160208183030381529060405280519060200120905090565b600080829050601f81511115620002a157826040517f305a27a9000000000000000000000000000000000000000000000000000000008152600401620002989190620007ee565b60405180910390fd5b805181620002af9062000844565b60001c1760001b915050919050565b6000819050919050565b600080fd5b600073ffffffffffffffffffffffffffffffffffffffff82169050919050565b6000620002fa82620002cd565b9050919050565b6200030c81620002ed565b81146200031857600080fd5b50565b6000815190506200032c8162000301565b92915050565b6000602082840312156200034b576200034a620002c8565b5b60006200035b848285016200031b565b91505092915050565b600081519050919050565b7f4e487b7100000000000000000000000000000000000000000000000000000000600052604160045260246000fd5b7f4e487b7100000000000000000000000000000000000000000000000000000000600052602260045260246000fd5b60006002820490506001821680620003e657607f821691505b602082108103620003fc57620003fb6200039e565b5b50919050565b60008190508160005260206000209050919050565b60006020601f8301049050919050565b600082821b905092915050565b600060088302620004667fffffffffffffffffffffffffffffffffffffffffffffffffffffffffffffffff8262000427565b62000472868362000427565b95508019841693508086168417925050509392505050565b6000819050919050565b6000819050919050565b6000620004bf620004b9620004b3846200048a565b62000494565b6200048a565b9050919050565b6000819050919050565b620004db836200049e565b620004f3620004ea82620004c6565b84845462000434565b825550505050565b600090565b6200050a620004fb565b62000517818484620004d0565b505050565b5b818110156200053f576200053360008262000500565b6001810190506200051d565b5050565b601f8211156200058e57620005588162000402565b620005638462000417565b8101602085101562000573578190505b6200058b620005828562000417565b8301826200051c565b50505b505050565b600082821c905092915050565b6000620005b36000198460080262000593565b1980831691505092915050565b6000620005ce8383620005a0565b9150826002028217905092915050565b620005e98262000364565b67ffffffffffffffff8111156200060557620006046200036f565b5b620006118254620003cd565b6200061e82828562000543565b600060209050601f83116001811462000656576000841562000641578287015190505b6200064d8582620005c0565b865550620006bd565b601f198416620006668662000402565b60005b82811015620006905784890151825560018201915060208501945060208101905062000669565b86831015620006b05784890151620006ac601f891682620005a0565b8355505b6001600288020188555050505b505050505050565b6000819050919050565b620006da81620006c5565b82525050565b620006eb816200048a565b82525050565b620006fc81620002ed565b82525050565b600060a082019050620007196000830188620006cf565b620007286020830187620006cf565b620007376040830186620006cf565b620007466060830185620006e0565b620007556080830184620006f1565b9695505050505050565b600082825260208201905092915050565b60005b838110156200079057808201518184015260208101905062000773565b60008484015250505050565b6000601f19601f8301169050919050565b6000620007ba8262000364565b620007c681856200075f565b9350620007d881856020860162000770565b620007e3816200079c565b840191505092915050565b600060208201905081810360008301526200080a8184620007ad565b905092915050565b600081519050919050565b6000819050602082019050919050565b60006200083b8251620006c5565b80915050919050565b6000620008518262000812565b826200085d846200081d565b90506200086a816200082d565b92506020821015620008ad57620008a87fffffffffffffffffffffffffffffffffffffffffffffffffffffffffffffffff8360200360080262000427565b831692505b5050919050565b60805160a05160c05160e051610100516101205161014051611ff86200090f60003960006106dd015260006106a20152600061105a0152600061103901526000610b1601526000610b6c01526000610b950152611ff86000f3fe608060405234801561001057600080fd5b50600436106100575760003560e01c80636c16ce691461005c57806384b0196e1461007a578063a28f3dd91461009e578063b46bff89146100ba578063b7634a6b146100d8575b600080fd5b610064610108565b604051610071919061120d565b60405180910390f35b61008261017d565b6040516100959796959493929190611424565b60405180910390f35b6100b860048036038101906100b3919061150c565b610227565b005b6100c261041e565b6040516100cf9190611568565b60405180910390f35b6100f260048036038101906100ed91906115a2565b610444565b6040516100ff91906115eb565b60405180910390f35b600080610116600554610609565b63ffffffff161161015c576040517f08c379a000000000000000000000000000000000000000000000000000000000815260040161015390611659565b60405180910390fd5b600061016c600454600554610620565b905061017781610609565b91505090565b600060608060008060006060610191610699565b6101996106d4565b46306000801b600067ffffffffffffffff8111156101ba576101b9611679565b5b6040519080825280602002602001820160405280156101e85781602001602082028036833780820191505090505b507f0f00000000000000000000000000000000000000000000000000000000000000959493929190965096509650965096509650965090919293949596565b600260009054906101000a900473ffffffffffffffffffffffffffffffffffffffff1673ffffffffffffffffffffffffffffffffffffffff163373ffffffffffffffffffffffffffffffffffffffff16146102b7576040517f08c379a00000000000000000000000000000000000000000000000000000000081526004016102ae9061171a565b60405180910390fd5b600360008373ffffffffffffffffffffffffffffffffffffffff1673ffffffffffffffffffffffffffffffffffffffff16815260200190815260200160002060000160009054906101000a900460ff1615610347576040517f08c379a000000000000000000000000000000000000000000000000000000000815260040161033e90611786565b60405180910390fd5b604051806040016040528060011515815260200161036d836103689061195b565b61070f565b815250600360008473ffffffffffffffffffffffffffffffffffffffff1673ffffffffffffffffffffffffffffffffffffffff16815260200190815260200160002060008201518160000160006101000a81548160ff021916908315150217905550602082015181600101559050506103f96004546103f4836103ef9061195b565b61070f565b61072a565b60048190555061041460055461040f60016107a2565b61072a565b6005819055505050565b600260009054906101000a900473ffffffffffffffffffffffffffffffffffffffff1681565b60608161045090611a06565b60006104a77f6bdaeb2d29561f159c7ef98b16b27015fb2aeb87209c7ee656226d912f59927d836000015160405160200161048c929190611a19565b604051602081830303815290604052805190602001206107b8565b905060006104b98284602001516107d2565b90503373ffffffffffffffffffffffffffffffffffffffff168173ffffffffffffffffffffffffffffffffffffffff1614610520576040517f3093a27700000000000000000000000000000000000000000000000000000000815260040160405180910390fd5b600360003373ffffffffffffffffffffffffffffffffffffffff1673ffffffffffffffffffffffffffffffffffffffff16815260200190815260200160002060000160009054906101000a900460ff166105af576040517f08c379a00000000000000000000000000000000000000000000000000000000081526004016105a690611a8e565b60405180910390fd5b6105ff600360003373ffffffffffffffffffffffffffffffffffffffff1673ffffffffffffffffffffffffffffffffffffffff1681526020019081526020016000206001015486600001356107fe565b9350505050919050565b6000610619826380000000610834565b9050919050565b600061062b83610906565b61063c5761063960006107a2565b92505b61064582610906565b6106565761065360006107a2565b91505b60008390506000839050600061068b60028484608073ffffffffffffffffffffffffffffffffffffffff16631f4cda2f610913565b905080935050505092915050565b60606106cf60007f00000000000000000000000000000000000000000000000000000000000000006109a790919063ffffffff16565b905090565b606061070a60017f00000000000000000000000000000000000000000000000000000000000000006109a790919063ffffffff16565b905090565b600061072382600001518360200151610a57565b9050919050565b600061073583610906565b6107465761074360006107a2565b92505b61074f82610906565b6107605761075d60006107a2565b91505b60008390506000839050600061079460028484608073ffffffffffffffffffffffffffffffffffffffff16622df619610913565b905080935050505092915050565b60006107b18260026000610a6d565b9050919050565b60006107cb6107c5610b12565b83610bc9565b9050919050565b6000806000806107e28686610c0a565b9250925092506107f28282610c66565b82935050505092915050565b606061080983610906565b61081a5761081760006107a2565b92505b600083905061082b60028285610dca565b91505092915050565b600061083f83610906565b6108505761084d60006107a2565b92505b60008263ffffffff1690506000849050600061086b82610e80565b90506000608073ffffffffffffffffffffffffffffffffffffffff16637c4697ab600284876040518463ffffffff1660e01b81526004016108ae93929190611b1f565b602060405180830381865afa1580156108cb573d6000803e3d6000fd5b505050506040513d601f19601f820116820180604052508101906108ef9190611b89565b90506108fa81610edd565b94505050505092915050565b6000808214159050919050565b6000606083838861092389610e80565b61092c89610e80565b6040518463ffffffff1660e01b815260040161094a93929190611bb6565b600060405180830381865afa158015610967573d6000803e3d6000fd5b505050506040513d6000823e3d601f19601f820116820180604052508101906109909190611c6b565b905061099b81610ee7565b91505095945050505050565b606060ff60001b83146109c4576109bd83610ef5565b9050610a51565b8180546109d090611ce3565b80601f01602080910402602001604051908101604052809291908181526020018280546109fc90611ce3565b8015610a495780601f10610a1e57610100808354040283529160200191610a49565b820191906000526020600020905b815481529060010190602001808311610a2c57829003601f168201915b505050505090505b92915050565b6000610a6583600284610f69565b905092915050565b60006060608073ffffffffffffffffffffffffffffffffffffffff1663ba19ac28610a9787610e80565b86866040518463ffffffff1660e01b8152600401610ab793929190611d23565b600060405180830381865afa158015610ad4573d6000803e3d6000fd5b505050506040513d6000823e3d601f19601f82011682018060405250810190610afd9190611c6b565b9050610b0881611006565b9150509392505050565b60007f000000000000000000000000000000000000000000000000000000000000000073ffffffffffffffffffffffffffffffffffffffff163073ffffffffffffffffffffffffffffffffffffffff16148015610b8e57507f000000000000000000000000000000000000000000000000000000000000000046145b15610bbb577f00000000000000000000000000000000000000000000000000000000000000009050610bc6565b610bc3611014565b90505b90565b60006040517f190100000000000000000000000000000000000000000000000000000000000081528360028201528260228201526042812091505092915050565b60008060006041845103610c4f5760008060006020870151925060408701519150606087015160001a9050610c41888285856110aa565b955095509550505050610c5f565b60006002855160001b9250925092505b9250925092565b60006003811115610c7a57610c79611d61565b5b826003811115610c8d57610c8c611d61565b5b0315610dc65760016003811115610ca757610ca6611d61565b5b826003811115610cba57610cb9611d61565b5b03610cf1576040517ff645eedf00000000000000000000000000000000000000000000000000000000815260040160405180910390fd5b60026003811115610d0557610d04611d61565b5b826003811115610d1857610d17611d61565b5b03610d5d578060001c6040517ffce698f7000000000000000000000000000000000000000000000000000000008152600401610d549190611d90565b60405180910390fd5b600380811115610d7057610d6f611d61565b5b826003811115610d8357610d82611d61565b5b03610dc557806040517fd78bce0c000000000000000000000000000000000000000000000000000000008152600401610dbc9190611dab565b60405180910390fd5b5b5050565b6060608073ffffffffffffffffffffffffffffffffffffffff1663a1848ff385610df386610e80565b85604051602001610e049190611de7565b6040516020818303038152906040526040518463ffffffff1660e01b8152600401610e3193929190611bb6565b600060405180830381865afa158015610e4e573d6000803e3d6000fd5b505050506040513d6000823e3d601f19601f82011682018060405250810190610e779190611ea3565b90509392505050565b6060602067ffffffffffffffff811115610e9d57610e9c611679565b5b6040519080825280601f01601f191660200182016040528015610ecf5781602001600182028036833780820191505090505b509050816020820152919050565b6000819050919050565b600060208201519050919050565b60606000610f028361119e565b90506000602067ffffffffffffffff811115610f2157610f20611679565b5b6040519080825280601f01601f191660200182016040528015610f535781602001600182028036833780820191505090505b5090508181528360208201528092505050919050565b60006060608073ffffffffffffffffffffffffffffffffffffffff166321b50ba38587866040518463ffffffff1660e01b8152600401610fab93929190611eec565b600060405180830381865afa158015610fc8573d6000803e3d6000fd5b505050506040513d6000823e3d601f19601f82011682018060405250810190610ff19190611c6b565b9050610ffc81611006565b9150509392505050565b600060208201519050919050565b60007f8b73c3c69bb8fe3d512ecc4cf759cc79239f7b179b0ffacaa9a75d522b39400f7f00000000000000000000000000000000000000000000000000000000000000007f0000000000000000000000000000000000000000000000000000000000000000463060405160200161108f959493929190611f2a565b60405160208183030381529060405280519060200120905090565b60008060007f7fffffffffffffffffffffffffffffff5d576e7357a4501ddfe92f46681b20a08460001c11156110ea576000600385925092509250611194565b60006001888888886040516000815260200160405260405161110f9493929190611f7d565b6020604051602081039080840390855afa158015611131573d6000803e3d6000fd5b505050602060405103519050600073ffffffffffffffffffffffffffffffffffffffff168173ffffffffffffffffffffffffffffffffffffffff160361118557600060016000801b93509350935050611194565b8060008060001b935093509350505b9450945094915050565b60008060ff8360001c169050601f8111156111e5576040517fb3512b0c00000000000000000000000000000000000000000000000000000000815260040160405180910390fd5b80915050919050565b600063ffffffff82169050919050565b611207816111ee565b82525050565b600060208201905061122260008301846111fe565b92915050565b60007fff0000000000000000000000000000000000000000000000000000000000000082169050919050565b61125d81611228565b82525050565b600081519050919050565b600082825260208201905092915050565b60005b8381101561129d578082015181840152602081019050611282565b60008484015250505050565b6000601f19601f8301169050919050565b60006112c582611263565b6112cf818561126e565b93506112df81856020860161127f565b6112e8816112a9565b840191505092915050565b6000819050919050565b611306816112f3565b82525050565b600073ffffffffffffffffffffffffffffffffffffffff82169050919050565b60006113378261130c565b9050919050565b6113478161132c565b82525050565b6000819050919050565b6113608161134d565b82525050565b600081519050919050565b600082825260208201905092915050565b6000819050602082019050919050565b61139b816112f3565b82525050565b60006113ad8383611392565b60208301905092915050565b6000602082019050919050565b60006113d182611366565b6113db8185611371565b93506113e683611382565b8060005b838110156114175781516113fe88826113a1565b9750611409836113b9565b9250506001810190506113ea565b5085935050505092915050565b600060e082019050611439600083018a611254565b818103602083015261144b81896112ba565b9050818103604083015261145f81886112ba565b905061146e60608301876112fd565b61147b608083018661133e565b61148860a0830185611357565b81810360c083015261149a81846113c6565b905098975050505050505050565b6000604051905090565b600080fd5b600080fd5b6114c58161132c565b81146114d057600080fd5b50565b6000813590506114e2816114bc565b92915050565b600080fd5b600060408284031215611503576115026114e8565b5b81905092915050565b60008060408385031215611523576115226114b2565b5b6000611531858286016114d3565b925050602083013567ffffffffffffffff811115611552576115516114b7565b5b61155e858286016114ed565b9150509250929050565b600060208201905061157d600083018461133e565b92915050565b600060408284031215611599576115986114e8565b5b81905092915050565b6000602082840312156115b8576115b76114b2565b5b600082013567ffffffffffffffff8111156115d6576115d56114b7565b5b6115e284828501611583565b91505092915050565b6000602082019050818103600083015261160581846112ba565b905092915050565b7f4e6f20677261646573207375626d697474656400000000000000000000000000600082015250565b600061164360138361126e565b915061164e8261160d565b602082019050919050565b6000602082019050818103600083015261167281611636565b9050919050565b7f4e487b7100000000000000000000000000000000000000000000000000000000600052604160045260246000fd5b7f4f6e6c792074686520746561636865722063616e207375626d6974206772616460008201527f6573000000000000000000000000000000000000000000000000000000000000602082015250565b600061170460228361126e565b915061170f826116a8565b604082019050919050565b60006020820190508181036000830152611733816116f7565b9050919050565b7f477261646520616c7265616479207375626d6974746564000000000000000000600082015250565b600061177060178361126e565b915061177b8261173a565b602082019050919050565b6000602082019050818103600083015261179f81611763565b9050919050565b600080fd5b6117b4826112a9565b810181811067ffffffffffffffff821117156117d3576117d2611679565b5b80604052505050565b60006117e66114a8565b90506117f282826117ab565b919050565b600080fd5b600080fd5b600080fd5b600067ffffffffffffffff82111561182157611820611679565b5b61182a826112a9565b9050602081019050919050565b82818337600083830152505050565b600061185961185484611806565b6117dc565b90508281526020810184848401111561187557611874611801565b5b611880848285611837565b509392505050565b600082601f83011261189d5761189c6117fc565b5b81356118ad848260208601611846565b91505092915050565b60008160030b9050919050565b6118cc816118b6565b81146118d757600080fd5b50565b6000813590506118e9816118c3565b92915050565b600060408284031215611905576119046117a6565b5b61190f60406117dc565b9050600082013567ffffffffffffffff81111561192f5761192e6117f7565b5b61193b84828501611888565b600083015250602061194f848285016118da565b60208301525092915050565b600061196736836118ef565b9050919050565b6119778161134d565b811461198257600080fd5b50565b6000813590506119948161196e565b92915050565b6000604082840312156119b0576119af6117a6565b5b6119ba60406117dc565b905060006119ca84828501611985565b600083015250602082013567ffffffffffffffff8111156119ee576119ed6117f7565b5b6119fa84828501611888565b60208301525092915050565b6000611a12368361199a565b9050919050565b6000604082019050611a2e6000830185611357565b611a3b6020830184611357565b9392505050565b7f4e6f206772616465207375626d69747465640000000000000000000000000000600082015250565b6000611a7860128361126e565b9150611a8382611a42565b602082019050919050565b60006020820190508181036000830152611aa781611a6b565b9050919050565b600060ff82169050919050565b611ac481611aae565b82525050565b600081519050919050565b600082825260208201905092915050565b6000611af182611aca565b611afb8185611ad5565b9350611b0b81856020860161127f565b611b14816112a9565b840191505092915050565b6000606082019050611b346000830186611abb565b8181036020830152611b468185611ae6565b9050611b5560408301846112fd565b949350505050565b611b66816112f3565b8114611b7157600080fd5b50565b600081519050611b8381611b5d565b92915050565b600060208284031215611b9f57611b9e6114b2565b5b6000611bad84828501611b74565b91505092915050565b6000606082019050611bcb6000830186611abb565b8181036020830152611bdd8185611ae6565b90508181036040830152611bf18184611ae6565b9050949350505050565b6000611c0e611c0984611806565b6117dc565b905082815260208101848484011115611c2a57611c29611801565b5b611c3584828561127f565b509392505050565b600082601f830112611c5257611c516117fc565b5b8151611c62848260208601611bfb565b91505092915050565b600060208284031215611c8157611c806114b2565b5b600082015167ffffffffffffffff811115611c9f57611c9e6114b7565b5b611cab84828501611c3d565b91505092915050565b7f4e487b7100000000000000000000000000000000000000000000000000000000600052602260045260246000fd5b60006002820490506001821680611cfb57607f821691505b602082108103611d0e57611d0d611cb4565b5b50919050565b611d1d816118b6565b82525050565b60006060820190508181036000830152611d3d8186611ae6565b9050611d4c6020830185611abb565b611d596040830184611d14565b949350505050565b7f4e487b7100000000000000000000000000000000000000000000000000000000600052602160045260246000fd5b6000602082019050611da560008301846112fd565b92915050565b6000602082019050611dc06000830184611357565b92915050565b6000819050919050565b611de1611ddc8261134d565b611dc6565b82525050565b6000611df38284611dd0565b60208201915081905092915050565b600067ffffffffffffffff821115611e1d57611e1c611679565b5b611e26826112a9565b9050602081019050919050565b6000611e46611e4184611e02565b6117dc565b905082815260208101848484011115611e6257611e61611801565b5b611e6d84828561127f565b509392505050565b600082601f830112611e8a57611e896117fc565b5b8151611e9a848260208601611e33565b91505092915050565b600060208284031215611eb957611eb86114b2565b5b600082015167ffffffffffffffff811115611ed757611ed66114b7565b5b611ee384828501611e75565b91505092915050565b6000606082019050611f016000830186611abb565b8181036020830152611f138185611ae6565b9050611f226040830184611d14565b949350505050565b600060a082019050611f3f6000830188611357565b611f4c6020830187611357565b611f596040830186611357565b611f6660608301856112fd565b611f73608083018461133e565b9695505050505050565b6000608082019050611f926000830187611357565b611f9f6020830186611abb565b611fac6040830185611357565b611fb96060830184611357565b9594505050505056fea2646970667358221220a5fbf553688e19f9570093eac8173220a38f7659173ef1fbbf6050a8f206056f64736f6c63430008140033",
  "linkReferences": {},
  "deployedLinkReferences": {}
}